{
  "_format": "hh-sol-artifact-1",
  "contractName": "StakedLyxToken",
  "sourceName": "contracts/tokens/StakedLyxToken.sol",
  "abi": [
    {
      "inputs": [],
      "stateMutability": "nonpayable",
      "type": "constructor"
    },
    {
      "inputs": [],
      "name": "ERC725Y_DataKeysValuesEmptyArray",
      "type": "error"
    },
    {
      "inputs": [],
      "name": "ERC725Y_DataKeysValuesLengthMismatch",
      "type": "error"
    },
    {
      "inputs": [],
      "name": "ERC725Y_MsgValueDisallowed",
      "type": "error"
    },
    {
      "inputs": [],
      "name": "LSP4TokenNameNotEditable",
      "type": "error"
    },
    {
      "inputs": [],
      "name": "LSP4TokenSymbolNotEditable",
      "type": "error"
    },
    {
      "inputs": [
        {
          "internalType": "address",
          "name": "tokenOwner",
          "type": "address"
        },
        {
          "internalType": "uint256",
          "name": "authorizedAmount",
          "type": "uint256"
        },
        {
          "internalType": "address",
          "name": "operator",
          "type": "address"
        },
        {
          "internalType": "uint256",
          "name": "amount",
          "type": "uint256"
        }
      ],
      "name": "LSP7AmountExceedsAuthorizedAmount",
      "type": "error"
    },
    {
      "inputs": [
        {
          "internalType": "uint256",
          "name": "balance",
          "type": "uint256"
        },
        {
          "internalType": "address",
          "name": "tokenOwner",
          "type": "address"
        },
        {
          "internalType": "uint256",
          "name": "amount",
          "type": "uint256"
        }
      ],
      "name": "LSP7AmountExceedsBalance",
      "type": "error"
    },
    {
      "inputs": [],
      "name": "LSP7CannotSendToSelf",
      "type": "error"
    },
    {
      "inputs": [],
      "name": "LSP7CannotSendWithAddressZero",
      "type": "error"
    },
    {
      "inputs": [],
      "name": "LSP7CannotUseAddressZeroAsOperator",
      "type": "error"
    },
    {
      "inputs": [],
      "name": "LSP7InvalidTransferBatch",
      "type": "error"
    },
    {
      "inputs": [],
      "name": "LSP7TokenOwnerCannotBeOperator",
      "type": "error"
    },
    {
      "anonymous": false,
      "inputs": [
        {
          "indexed": true,
          "internalType": "address",
          "name": "owner",
          "type": "address"
        },
        {
          "indexed": true,
          "internalType": "address",
          "name": "spender",
          "type": "address"
        },
        {
          "indexed": false,
          "internalType": "uint256",
          "name": "value",
          "type": "uint256"
        }
      ],
      "name": "Approval",
      "type": "event"
    },
    {
      "anonymous": false,
      "inputs": [
        {
          "indexed": true,
          "internalType": "address",
          "name": "operator",
          "type": "address"
        },
        {
          "indexed": true,
          "internalType": "address",
          "name": "tokenOwner",
          "type": "address"
        },
        {
          "indexed": true,
          "internalType": "uint256",
          "name": "amount",
          "type": "uint256"
        }
      ],
      "name": "AuthorizedOperator",
      "type": "event"
    },
    {
      "anonymous": false,
      "inputs": [
        {
          "indexed": true,
          "internalType": "bytes32",
          "name": "dataKey",
          "type": "bytes32"
        },
        {
          "indexed": false,
          "internalType": "bytes",
          "name": "dataValue",
          "type": "bytes"
        }
      ],
      "name": "DataChanged",
      "type": "event"
    },
    {
      "anonymous": false,
      "inputs": [
        {
          "indexed": false,
          "internalType": "uint8",
          "name": "version",
          "type": "uint8"
        }
      ],
      "name": "Initialized",
      "type": "event"
    },
    {
      "anonymous": false,
      "inputs": [
        {
          "indexed": true,
          "internalType": "uint256",
          "name": "requestIndex",
          "type": "uint256"
        },
        {
          "indexed": true,
          "internalType": "address",
          "name": "account",
          "type": "address"
        },
        {
          "indexed": false,
          "internalType": "uint256",
          "name": "amount",
          "type": "uint256"
        },
        {
          "indexed": false,
          "internalType": "uint256",
          "name": "newTotalPendingUnstake",
          "type": "uint256"
        }
      ],
      "name": "NewUnstakeRequest",
      "type": "event"
    },
    {
      "anonymous": false,
      "inputs": [
        {
          "indexed": true,
          "internalType": "address",
          "name": "previousOwner",
          "type": "address"
        },
        {
          "indexed": true,
          "internalType": "address",
          "name": "newOwner",
          "type": "address"
        }
      ],
      "name": "OwnershipTransferred",
      "type": "event"
    },
    {
      "anonymous": false,
      "inputs": [
        {
          "indexed": false,
          "internalType": "address",
          "name": "account",
          "type": "address"
        }
      ],
      "name": "Paused",
      "type": "event"
    },
    {
      "anonymous": false,
      "inputs": [
        {
          "indexed": true,
          "internalType": "address",
          "name": "operator",
          "type": "address"
        },
        {
          "indexed": true,
          "internalType": "address",
          "name": "tokenOwner",
          "type": "address"
        }
      ],
      "name": "RevokedOperator",
      "type": "event"
    },
    {
      "anonymous": false,
      "inputs": [
        {
          "indexed": true,
          "internalType": "bytes32",
          "name": "role",
          "type": "bytes32"
        },
        {
          "indexed": true,
          "internalType": "bytes32",
          "name": "previousAdminRole",
          "type": "bytes32"
        },
        {
          "indexed": true,
          "internalType": "bytes32",
          "name": "newAdminRole",
          "type": "bytes32"
        }
      ],
      "name": "RoleAdminChanged",
      "type": "event"
    },
    {
      "anonymous": false,
      "inputs": [
        {
          "indexed": true,
          "internalType": "bytes32",
          "name": "role",
          "type": "bytes32"
        },
        {
          "indexed": true,
          "internalType": "address",
          "name": "account",
          "type": "address"
        },
        {
          "indexed": true,
          "internalType": "address",
          "name": "sender",
          "type": "address"
        }
      ],
      "name": "RoleGranted",
      "type": "event"
    },
    {
      "anonymous": false,
      "inputs": [
        {
          "indexed": true,
          "internalType": "bytes32",
          "name": "role",
          "type": "bytes32"
        },
        {
          "indexed": true,
          "internalType": "address",
          "name": "account",
          "type": "address"
        },
        {
          "indexed": true,
          "internalType": "address",
          "name": "sender",
          "type": "address"
        }
      ],
      "name": "RoleRevoked",
      "type": "event"
    },
    {
      "anonymous": false,
      "inputs": [
        {
          "indexed": true,
          "internalType": "address",
          "name": "operator",
          "type": "address"
        },
        {
          "indexed": true,
          "internalType": "address",
          "name": "from",
          "type": "address"
        },
        {
          "indexed": true,
          "internalType": "address",
          "name": "to",
          "type": "address"
        },
        {
          "indexed": false,
          "internalType": "uint256",
          "name": "amount",
          "type": "uint256"
        },
        {
          "indexed": false,
          "internalType": "bool",
          "name": "allowNonLSP1Recipient",
          "type": "bool"
        },
        {
          "indexed": false,
          "internalType": "bytes",
          "name": "data",
          "type": "bytes"
        }
      ],
      "name": "Transfer",
      "type": "event"
    },
    {
      "anonymous": false,
      "inputs": [
        {
          "indexed": false,
          "internalType": "address",
          "name": "account",
          "type": "address"
        }
      ],
      "name": "Unpaused",
      "type": "event"
    },
    {
      "anonymous": false,
      "inputs": [
        {
          "indexed": false,
          "internalType": "uint256",
          "name": "amountMatched",
          "type": "uint256"
        },
        {
          "indexed": false,
          "internalType": "uint256",
          "name": "newTotalPendingUnstake",
          "type": "uint256"
        }
      ],
      "name": "UnstakeMatched",
      "type": "event"
    },
    {
      "anonymous": false,
      "inputs": [
        {
          "indexed": false,
          "internalType": "uint256",
          "name": "unstakeAmount",
          "type": "uint256"
        },
        {
          "indexed": false,
          "internalType": "uint256",
          "name": "newTotalPendingUnstake",
          "type": "uint256"
        }
      ],
      "name": "UnstakeProcessed",
      "type": "event"
    },
    {
      "anonymous": false,
      "inputs": [
        {
          "indexed": false,
          "internalType": "uint256",
          "name": "validatorsToExit",
          "type": "uint256"
        }
      ],
      "name": "UnstakeReady",
      "type": "event"
    },
    {
      "inputs": [],
      "name": "DEFAULT_ADMIN_ROLE",
      "outputs": [
        {
          "internalType": "bytes32",
          "name": "",
          "type": "bytes32"
        }
      ],
      "stateMutability": "view",
      "type": "function"
    },
    {
      "inputs": [],
      "name": "PAUSER_ROLE",
      "outputs": [
        {
          "internalType": "bytes32",
          "name": "",
          "type": "bytes32"
        }
      ],
      "stateMutability": "view",
      "type": "function"
    },
    {
      "inputs": [],
      "name": "VALIDATOR_TOTAL_DEPOSIT",
      "outputs": [
        {
          "internalType": "uint256",
          "name": "",
          "type": "uint256"
        }
      ],
      "stateMutability": "view",
      "type": "function"
    },
    {
      "inputs": [
        {
          "internalType": "address",
          "name": "_account",
          "type": "address"
        }
      ],
      "name": "addAdmin",
      "outputs": [],
      "stateMutability": "nonpayable",
      "type": "function"
    },
    {
      "inputs": [
        {
          "internalType": "address",
          "name": "_account",
          "type": "address"
        }
      ],
      "name": "addPauser",
      "outputs": [],
      "stateMutability": "nonpayable",
      "type": "function"
    },
    {
      "inputs": [
        {
          "internalType": "address",
          "name": "tokenOwner",
          "type": "address"
        },
        {
          "internalType": "address",
          "name": "operator",
          "type": "address"
        }
      ],
      "name": "allowance",
      "outputs": [
        {
          "internalType": "uint256",
          "name": "",
          "type": "uint256"
        }
      ],
      "stateMutability": "view",
      "type": "function"
    },
    {
      "inputs": [
        {
          "internalType": "address",
          "name": "operator",
          "type": "address"
        },
        {
          "internalType": "uint256",
          "name": "amount",
          "type": "uint256"
        }
      ],
      "name": "approve",
      "outputs": [
        {
          "internalType": "bool",
          "name": "",
          "type": "bool"
        }
      ],
      "stateMutability": "nonpayable",
      "type": "function"
    },
    {
      "inputs": [
        {
          "internalType": "address",
          "name": "operator",
          "type": "address"
        },
        {
          "internalType": "uint256",
          "name": "amount",
          "type": "uint256"
        }
      ],
      "name": "authorizeOperator",
      "outputs": [],
      "stateMutability": "nonpayable",
      "type": "function"
    },
    {
      "inputs": [
        {
          "internalType": "address",
          "name": "operator",
          "type": "address"
        },
        {
          "internalType": "address",
          "name": "tokenOwner",
          "type": "address"
        }
      ],
      "name": "authorizedAmountFor",
      "outputs": [
        {
          "internalType": "uint256",
          "name": "",
          "type": "uint256"
        }
      ],
      "stateMutability": "view",
      "type": "function"
    },
    {
      "inputs": [
        {
          "internalType": "address",
          "name": "tokenOwner",
          "type": "address"
        }
      ],
      "name": "balanceOf",
      "outputs": [
        {
          "internalType": "uint256",
          "name": "",
          "type": "uint256"
        }
      ],
      "stateMutability": "view",
      "type": "function"
    },
    {
      "inputs": [
        {
          "internalType": "address",
          "name": "account",
          "type": "address"
        },
        {
          "internalType": "uint256[]",
          "name": "unstakeRequestIndexes",
          "type": "uint256[]"
        }
      ],
      "name": "claimUnstake",
      "outputs": [
        {
          "internalType": "uint256",
          "name": "",
          "type": "uint256"
        }
      ],
      "stateMutability": "nonpayable",
      "type": "function"
    },
    {
      "inputs": [],
      "name": "decimals",
      "outputs": [
        {
          "internalType": "uint8",
          "name": "",
          "type": "uint8"
        }
      ],
      "stateMutability": "pure",
      "type": "function"
    },
    {
      "inputs": [],
      "name": "distributorPrincipal",
      "outputs": [
        {
          "internalType": "uint256",
          "name": "",
          "type": "uint256"
        }
      ],
      "stateMutability": "view",
      "type": "function"
    },
    {
      "inputs": [
        {
          "internalType": "bytes32",
          "name": "dataKey",
          "type": "bytes32"
        }
      ],
      "name": "getData",
      "outputs": [
        {
          "internalType": "bytes",
          "name": "dataValue",
          "type": "bytes"
        }
      ],
      "stateMutability": "view",
      "type": "function"
    },
    {
      "inputs": [
        {
          "internalType": "bytes32[]",
          "name": "dataKeys",
          "type": "bytes32[]"
        }
      ],
      "name": "getDataBatch",
      "outputs": [
        {
          "internalType": "bytes[]",
          "name": "dataValues",
          "type": "bytes[]"
        }
      ],
      "stateMutability": "view",
      "type": "function"
    },
    {
      "inputs": [
        {
          "internalType": "bytes32",
          "name": "role",
          "type": "bytes32"
        }
      ],
      "name": "getRoleAdmin",
      "outputs": [
        {
          "internalType": "bytes32",
          "name": "",
          "type": "bytes32"
        }
      ],
      "stateMutability": "view",
      "type": "function"
    },
    {
      "inputs": [
        {
          "internalType": "bytes32",
          "name": "role",
          "type": "bytes32"
        },
        {
          "internalType": "address",
          "name": "account",
          "type": "address"
        }
      ],
      "name": "grantRole",
      "outputs": [],
      "stateMutability": "nonpayable",
      "type": "function"
    },
    {
      "inputs": [
        {
          "internalType": "bytes32",
          "name": "role",
          "type": "bytes32"
        },
        {
          "internalType": "address",
          "name": "account",
          "type": "address"
        }
      ],
      "name": "hasRole",
      "outputs": [
        {
          "internalType": "bool",
          "name": "",
          "type": "bool"
        }
      ],
      "stateMutability": "view",
      "type": "function"
    },
    {
      "inputs": [
        {
          "internalType": "address",
          "name": "_admin",
          "type": "address"
        },
        {
          "internalType": "contract IPool",
          "name": "_pool",
          "type": "address"
        },
        {
          "internalType": "address",
          "name": "_oracles",
          "type": "address"
        },
        {
          "internalType": "contract IRewards",
          "name": "_rewards",
          "type": "address"
        }
      ],
      "name": "initialize",
      "outputs": [],
      "stateMutability": "nonpayable",
      "type": "function"
    },
    {
      "inputs": [
        {
          "internalType": "address",
          "name": "_account",
          "type": "address"
        }
      ],
      "name": "isAdmin",
      "outputs": [
        {
          "internalType": "bool",
          "name": "",
          "type": "bool"
        }
      ],
      "stateMutability": "view",
      "type": "function"
    },
    {
      "inputs": [
        {
          "internalType": "address",
          "name": "_account",
          "type": "address"
        }
      ],
      "name": "isPauser",
      "outputs": [
        {
          "internalType": "bool",
          "name": "",
          "type": "bool"
        }
      ],
      "stateMutability": "view",
      "type": "function"
    },
    {
      "inputs": [
        {
          "internalType": "uint256",
          "name": "index",
          "type": "uint256"
        }
      ],
      "name": "isUnstakeRequestClaimable",
      "outputs": [
        {
          "internalType": "bool",
          "name": "",
          "type": "bool"
        }
      ],
      "stateMutability": "view",
      "type": "function"
    },
    {
      "inputs": [
        {
          "internalType": "uint256",
          "name": "amount",
          "type": "uint256"
        }
      ],
      "name": "matchUnstake",
      "outputs": [
        {
          "internalType": "uint256",
          "name": "",
          "type": "uint256"
        }
      ],
      "stateMutability": "nonpayable",
      "type": "function"
    },
    {
      "inputs": [
        {
          "internalType": "address",
          "name": "to",
          "type": "address"
        },
        {
          "internalType": "uint256",
          "name": "amount",
          "type": "uint256"
        },
        {
          "internalType": "bool",
          "name": "allowNonLSP1Recipient",
          "type": "bool"
        },
        {
          "internalType": "bytes",
          "name": "data",
          "type": "bytes"
        }
      ],
      "name": "mint",
      "outputs": [],
      "stateMutability": "nonpayable",
      "type": "function"
    },
    {
      "inputs": [],
      "name": "owner",
      "outputs": [
        {
          "internalType": "address",
          "name": "",
          "type": "address"
        }
      ],
      "stateMutability": "view",
      "type": "function"
    },
    {
      "inputs": [],
      "name": "pause",
      "outputs": [],
      "stateMutability": "nonpayable",
      "type": "function"
    },
    {
      "inputs": [],
      "name": "paused",
      "outputs": [
        {
          "internalType": "bool",
          "name": "",
          "type": "bool"
        }
      ],
      "stateMutability": "view",
      "type": "function"
    },
    {
      "inputs": [
        {
          "internalType": "address",
          "name": "_account",
          "type": "address"
        }
      ],
      "name": "removeAdmin",
      "outputs": [],
      "stateMutability": "nonpayable",
      "type": "function"
    },
    {
      "inputs": [
        {
          "internalType": "address",
          "name": "_account",
          "type": "address"
        }
      ],
      "name": "removePauser",
      "outputs": [],
      "stateMutability": "nonpayable",
      "type": "function"
    },
    {
      "inputs": [],
      "name": "renounceOwnership",
      "outputs": [],
      "stateMutability": "nonpayable",
      "type": "function"
    },
    {
      "inputs": [
        {
          "internalType": "bytes32",
          "name": "role",
          "type": "bytes32"
        },
        {
          "internalType": "address",
          "name": "account",
          "type": "address"
        }
      ],
      "name": "renounceRole",
      "outputs": [],
      "stateMutability": "nonpayable",
      "type": "function"
    },
    {
      "inputs": [
        {
          "internalType": "address",
          "name": "operator",
          "type": "address"
        }
      ],
      "name": "revokeOperator",
      "outputs": [],
      "stateMutability": "nonpayable",
      "type": "function"
    },
    {
      "inputs": [
        {
          "internalType": "bytes32",
          "name": "role",
          "type": "bytes32"
        },
        {
          "internalType": "address",
          "name": "account",
          "type": "address"
        }
      ],
      "name": "revokeRole",
      "outputs": [],
      "stateMutability": "nonpayable",
      "type": "function"
    },
    {
      "inputs": [
        {
          "internalType": "bytes32",
          "name": "dataKey",
          "type": "bytes32"
        },
        {
          "internalType": "bytes",
          "name": "dataValue",
          "type": "bytes"
        }
      ],
      "name": "setData",
      "outputs": [],
      "stateMutability": "payable",
      "type": "function"
    },
    {
      "inputs": [
        {
          "internalType": "bytes32[]",
          "name": "dataKeys",
          "type": "bytes32[]"
        },
        {
          "internalType": "bytes[]",
          "name": "dataValues",
          "type": "bytes[]"
        }
      ],
      "name": "setDataBatch",
      "outputs": [],
      "stateMutability": "payable",
      "type": "function"
    },
    {
      "inputs": [],
      "name": "setUnstakeProcessing",
      "outputs": [],
      "stateMutability": "nonpayable",
      "type": "function"
    },
    {
      "inputs": [
        {
          "internalType": "bytes4",
          "name": "interfaceId",
          "type": "bytes4"
        }
      ],
      "name": "supportsInterface",
      "outputs": [
        {
          "internalType": "bool",
          "name": "",
          "type": "bool"
        }
      ],
      "stateMutability": "view",
      "type": "function"
    },
    {
      "inputs": [
        {
          "internalType": "address",
          "name": "tokenOwner",
          "type": "address"
        },
        {
          "internalType": "bool",
          "name": "isDisabled",
          "type": "bool"
        }
      ],
      "name": "toggleRewards",
      "outputs": [],
      "stateMutability": "nonpayable",
      "type": "function"
    },
    {
      "inputs": [],
      "name": "totalClaimableUnstakes",
      "outputs": [
        {
          "internalType": "uint256",
          "name": "",
          "type": "uint256"
        }
      ],
      "stateMutability": "view",
      "type": "function"
    },
    {
      "inputs": [],
      "name": "totalDeposits",
      "outputs": [
        {
          "internalType": "uint256",
          "name": "",
          "type": "uint256"
        }
      ],
      "stateMutability": "view",
      "type": "function"
    },
    {
      "inputs": [],
      "name": "totalPendingUnstake",
      "outputs": [
        {
          "internalType": "uint256",
          "name": "",
          "type": "uint256"
        }
      ],
      "stateMutability": "view",
      "type": "function"
    },
    {
      "inputs": [],
      "name": "totalSupply",
      "outputs": [
        {
          "internalType": "uint256",
          "name": "",
          "type": "uint256"
        }
      ],
      "stateMutability": "view",
      "type": "function"
    },
    {
      "inputs": [],
      "name": "totalUnstaked",
      "outputs": [
        {
          "internalType": "uint256",
          "name": "",
          "type": "uint256"
        }
      ],
      "stateMutability": "view",
      "type": "function"
    },
    {
      "inputs": [
        {
          "internalType": "address",
          "name": "from",
          "type": "address"
        },
        {
          "internalType": "address",
          "name": "to",
          "type": "address"
        },
        {
          "internalType": "uint256",
          "name": "amount",
          "type": "uint256"
        },
        {
          "internalType": "bool",
          "name": "allowNonLSP1Recipient",
          "type": "bool"
        },
        {
          "internalType": "bytes",
          "name": "data",
          "type": "bytes"
        }
      ],
      "name": "transfer",
      "outputs": [],
      "stateMutability": "nonpayable",
      "type": "function"
    },
    {
      "inputs": [
        {
          "internalType": "address",
          "name": "to",
          "type": "address"
        },
        {
          "internalType": "uint256",
          "name": "amount",
          "type": "uint256"
        }
      ],
      "name": "transfer",
      "outputs": [
        {
          "internalType": "bool",
          "name": "",
          "type": "bool"
        }
      ],
      "stateMutability": "nonpayable",
      "type": "function"
    },
    {
      "inputs": [
        {
          "internalType": "address[]",
          "name": "from",
          "type": "address[]"
        },
        {
          "internalType": "address[]",
          "name": "to",
          "type": "address[]"
        },
        {
          "internalType": "uint256[]",
          "name": "amount",
          "type": "uint256[]"
        },
        {
          "internalType": "bool[]",
          "name": "allowNonLSP1Recipient",
          "type": "bool[]"
        },
        {
          "internalType": "bytes[]",
          "name": "data",
          "type": "bytes[]"
        }
      ],
      "name": "transferBatch",
      "outputs": [],
      "stateMutability": "nonpayable",
      "type": "function"
    },
    {
      "inputs": [
        {
          "internalType": "address",
          "name": "from",
          "type": "address"
        },
        {
          "internalType": "address",
          "name": "to",
          "type": "address"
        },
        {
          "internalType": "uint256",
          "name": "amount",
          "type": "uint256"
        }
      ],
      "name": "transferFrom",
      "outputs": [
        {
          "internalType": "bool",
          "name": "",
          "type": "bool"
        }
      ],
      "stateMutability": "nonpayable",
      "type": "function"
    },
    {
      "inputs": [
        {
          "internalType": "address",
          "name": "newOwner",
          "type": "address"
        }
      ],
      "name": "transferOwnership",
      "outputs": [],
      "stateMutability": "nonpayable",
      "type": "function"
    },
    {
      "inputs": [],
      "name": "unpause",
      "outputs": [],
      "stateMutability": "nonpayable",
      "type": "function"
    },
    {
      "inputs": [
        {
          "internalType": "uint256",
          "name": "amount",
          "type": "uint256"
        }
      ],
      "name": "unstake",
      "outputs": [],
      "stateMutability": "nonpayable",
      "type": "function"
    },
    {
      "inputs": [
        {
          "internalType": "uint256",
          "name": "exitedValidators",
          "type": "uint256"
        }
      ],
      "name": "unstakeProcessed",
      "outputs": [],
      "stateMutability": "nonpayable",
      "type": "function"
    },
    {
      "inputs": [],
      "name": "unstakeProcessing",
      "outputs": [
        {
          "internalType": "bool",
          "name": "",
          "type": "bool"
        }
      ],
      "stateMutability": "view",
      "type": "function"
    },
    {
      "inputs": [
        {
          "internalType": "uint256",
          "name": "index",
          "type": "uint256"
        }
      ],
      "name": "unstakeRequest",
      "outputs": [
        {
          "components": [
            {
              "internalType": "address",
              "name": "account",
              "type": "address"
            },
            {
              "internalType": "uint128",
              "name": "amount",
              "type": "uint128"
            },
            {
              "internalType": "uint128",
              "name": "amountFilled",
              "type": "uint128"
            },
            {
              "internalType": "bool",
              "name": "claimed",
              "type": "bool"
            }
          ],
          "internalType": "struct IStakedLyxToken.UnstakeRequest",
          "name": "",
          "type": "tuple"
        }
      ],
      "stateMutability": "view",
      "type": "function"
    },
    {
      "inputs": [],
      "name": "unstakeRequestCount",
      "outputs": [
        {
          "internalType": "uint256",
          "name": "",
          "type": "uint256"
        }
      ],
      "stateMutability": "view",
      "type": "function"
    },
    {
      "inputs": [],
      "name": "unstakeRequestCurrentIndex",
      "outputs": [
        {
          "internalType": "uint256",
          "name": "",
          "type": "uint256"
        }
      ],
      "stateMutability": "view",
      "type": "function"
    }
  ],
  "bytecode": "0x60806040523480156200001157600080fd5b50620000226200002860201b60201c565b620001d3565b600060019054906101000a900460ff16156200007b576040517f08c379a0000000000000000000000000000000000000000000000000000000008152600401620000729062000176565b60405180910390fd5b60ff801660008054906101000a900460ff1660ff161015620000ed5760ff6000806101000a81548160ff021916908360ff1602179055507f7f26b83ff96e1f2b6a682f133852f6798a09c465da95921460cefb384740249860ff604051620000e49190620001b6565b60405180910390a15b565b600082825260208201905092915050565b7f496e697469616c697a61626c653a20636f6e747261637420697320696e69746960008201527f616c697a696e6700000000000000000000000000000000000000000000000000602082015250565b60006200015e602783620000ef565b91506200016b8262000100565b604082019050919050565b6000602082019050818103600083015262000191816200014f565b9050919050565b600060ff82169050919050565b620001b08162000198565b82525050565b6000602082019050620001cd6000830184620001a5565b92915050565b6176fc80620001e36000396000f3fe6080604052600436106103505760003560e01c80636b2c0f55116101c657806391d14854116100f7578063d547741f11610095578063e63ab1e91161006f578063e63ab1e914610c8e578063f2fde38b14610cb9578063f8c8765e14610ce2578063fad8b32a14610d0b57610350565b8063d547741f14610beb578063dd62ed3e14610c14578063dedff9c614610c5157610350565b8063a217fddf116100d1578063a217fddf14610b2f578063a9059cbb14610b5a578063ae5e0f7a14610b97578063c76e317414610bc257610350565b806391d1485414610a995780639790242114610ad65780639886f99a14610af257610350565b80637d882097116101645780638456cb591161013e5780638456cb5914610a0357806384f6ab3014610a1a5780638da5cb5b14610a315780638ee9f8e014610a5c57610350565b80637d882097146109935780637f23690c146109be57806382dc1ec4146109da57610350565b8063715018a6116101a0578063715018a6146108ff5780637580d92014610916578063760d9bba1461093f57806377aec5211461096857610350565b80636b2c0f5514610870578063704802751461089957806370a08231146108c257610350565b80632d7667c9116102a057806346fbf68e1161023e5780635235934d116102185780635235934d146107a057806354f6127f146107cb5780635c975abb1461080857806365aeaa951461083357610350565b806346fbf68e1461070f57806347980aa31461074c5780634baee8e41461077557610350565b8063313ce5671161027a578063313ce5671461067957806336568abe146106a45780633d173136146106cd5780633f4ba83a146106f857610350565b80632d7667c9146105fe5780632e17de78146106275780632f2ff15d1461065057610350565b80631785f53c1161030d5780632296728d116102e75780632296728d1461051c57806323b872dd14610547578063248a9ca31461058457806324d7806c146105c157610350565b80631785f53c1461049f57806318160ddd146104c857806318dab53b146104f357610350565b806301ffc9a714610355578063095ea7b31461039257806310fbf713146103cf578063158783e9146103fa578063167bd1d81461043757806316bc06d814610474575b600080fd5b34801561036157600080fd5b5061037c60048036038101906103779190614e82565b610d34565b6040516103899190614eca565b60405180910390f35b34801561039e57600080fd5b506103b960048036038101906103b49190614f79565b610d95565b6040516103c69190614eca565b60405180910390f35b3480156103db57600080fd5b506103e4610dab565b6040516103f19190614eca565b60405180910390f35b34801561040657600080fd5b50610421600480360381019061041c919061501e565b610dbf565b60405161042e919061508d565b60405180910390f35b34801561044357600080fd5b5061045e600480360381019061045991906150a8565b610fef565b60405161046b919061508d565b60405180910390f35b34801561048057600080fd5b50610489611411565b604051610496919061508d565b60405180910390f35b3480156104ab57600080fd5b506104c660048036038101906104c191906150d5565b611598565b005b3480156104d457600080fd5b506104dd6115a8565b6040516104ea919061508d565b60405180910390f35b3480156104ff57600080fd5b5061051a6004803603810190610515919061512e565b6115b2565b005b34801561052857600080fd5b5061053161177f565b60405161053e919061508d565b60405180910390f35b34801561055357600080fd5b5061056e6004803603810190610569919061516e565b611786565b60405161057b9190614eca565b60405180910390f35b34801561059057600080fd5b506105ab60048036038101906105a691906151f7565b6117b0565b6040516105b89190615233565b60405180910390f35b3480156105cd57600080fd5b506105e860048036038101906105e391906150d5565b6117d0565b6040516105f59190614eca565b60405180910390f35b34801561060a57600080fd5b50610625600480360381019061062091906156b9565b6117e6565b005b34801561063357600080fd5b5061064e600480360381019061064991906150a8565b6118fa565b005b34801561065c57600080fd5b50610677600480360381019061067291906157c0565b611cf5565b005b34801561068557600080fd5b5061068e611d16565b60405161069b919061581c565b60405180910390f35b3480156106b057600080fd5b506106cb60048036038101906106c691906157c0565b611d1f565b005b3480156106d957600080fd5b506106e2611da2565b6040516106ef919061508d565b60405180910390f35b34801561070457600080fd5b5061070d611da8565b005b34801561071b57600080fd5b50610736600480360381019061073191906150d5565b611e1b565b6040516107439190614eca565b60405180910390f35b34801561075857600080fd5b50610773600480360381019061076e9190614f79565b611e4e565b005b34801561078157600080fd5b5061078a611e5d565b604051610797919061508d565b60405180910390f35b3480156107ac57600080fd5b506107b5611e64565b6040516107c2919061508d565b60405180910390f35b3480156107d757600080fd5b506107f260048036038101906107ed91906151f7565b611e6a565b6040516107ff91906158b6565b60405180910390f35b34801561081457600080fd5b5061081d611e7c565b60405161082a9190614eca565b60405180910390f35b34801561083f57600080fd5b5061085a600480360381019061085591906158d8565b611e93565b604051610867919061508d565b60405180910390f35b34801561087c57600080fd5b50610897600480360381019061089291906150d5565b611f97565b005b3480156108a557600080fd5b506108c060048036038101906108bb91906150d5565b611fc4565b005b3480156108ce57600080fd5b506108e960048036038101906108e491906150d5565b611fd4565b6040516108f6919061508d565b60405180910390f35b34801561090b57600080fd5b5061091461201e565b005b34801561092257600080fd5b5061093d60048036038101906109389190615918565b612032565b005b34801561094b57600080fd5b506109666004803603810190610961919061599b565b612196565b005b34801561097457600080fd5b5061097d61232d565b60405161098a919061508d565b60405180910390f35b34801561099f57600080fd5b506109a861233a565b6040516109b5919061508d565b60405180910390f35b6109d860048036038101906109d39190615a32565b612344565b005b3480156109e657600080fd5b50610a0160048036038101906109fc91906150d5565b612394565b005b348015610a0f57600080fd5b50610a186123c1565b005b348015610a2657600080fd5b50610a2f612434565b005b348015610a3d57600080fd5b50610a46612691565b604051610a539190615a9d565b60405180910390f35b348015610a6857600080fd5b50610a836004803603810190610a7e91906150a8565b6126bb565b604051610a909190614eca565b60405180910390f35b348015610aa557600080fd5b50610ac06004803603810190610abb91906157c0565b612865565b604051610acd9190614eca565b60405180910390f35b610af06004803603810190610aeb9190615b7b565b6128d0565b005b348015610afe57600080fd5b50610b196004803603810190610b1491906150a8565b6129e2565b604051610b269190615c91565b60405180910390f35b348015610b3b57600080fd5b50610b44612ba1565b604051610b519190615233565b60405180910390f35b348015610b6657600080fd5b50610b816004803603810190610b7c9190614f79565b612ba8565b604051610b8e9190614eca565b60405180910390f35b348015610ba357600080fd5b50610bac612bd1565b604051610bb9919061508d565b60405180910390f35b348015610bce57600080fd5b50610be96004803603810190610be491906150a8565b612bd8565b005b348015610bf757600080fd5b50610c126004803603810190610c0d91906157c0565b61316a565b005b348015610c2057600080fd5b50610c3b6004803603810190610c3691906158d8565b61318b565b604051610c48919061508d565b60405180910390f35b348015610c5d57600080fd5b50610c786004803603810190610c739190615cac565b61319f565b604051610c859190615e01565b60405180910390f35b348015610c9a57600080fd5b50610ca3613250565b604051610cb09190615233565b60405180910390f35b348015610cc557600080fd5b50610ce06004803603810190610cdb91906150d5565b613274565b005b348015610cee57600080fd5b50610d096004803603810190610d049190615e9f565b6132f7565b005b348015610d1757600080fd5b50610d326004803603810190610d2d91906150d5565b613731565b005b600063da1f85e460e01b7bffffffffffffffffffffffffffffffffffffffffffffffffffffffff1916827bffffffffffffffffffffffffffffffffffffffffffffffffffffffff19161480610d8e5750610d8d82613740565b5b9050919050565b6000610da18383611e4e565b6001905092915050565b61010260009054906101000a900460ff1681565b600061010860009054906101000a900473ffffffffffffffffffffffffffffffffffffffff1673ffffffffffffffffffffffffffffffffffffffff163373ffffffffffffffffffffffffffffffffffffffff1614610e52576040517f08c379a0000000000000000000000000000000000000000000000000000000008152600401610e4990615f63565b60405180910390fd5b6000805b84849050811015610fe3576000858583818110610e7657610e75615f83565b5b905060200201359050610e88816126bb565b610ec7576040517f08c379a0000000000000000000000000000000000000000000000000000000008152600401610ebe90616024565b60405180910390fd5b6000610103600083815260200190815260200160002090508773ffffffffffffffffffffffffffffffffffffffff168160000160009054906101000a900473ffffffffffffffffffffffffffffffffffffffff1673ffffffffffffffffffffffffffffffffffffffff1614610f71576040517f08c379a0000000000000000000000000000000000000000000000000000000008152600401610f68906160b6565b60405180910390fd5b8060010160009054906101000a90046fffffffffffffffffffffffffffffffff166fffffffffffffffffffffffffffffffff1684610faf9190616105565b935060018160020160006101000a81548160ff02191690831515021790555050508080610fdb90616139565b915050610e56565b50809150509392505050565b600061010660009054906101000a900473ffffffffffffffffffffffffffffffffffffffff1673ffffffffffffffffffffffffffffffffffffffff163373ffffffffffffffffffffffffffffffffffffffff1614611082576040517f08c379a000000000000000000000000000000000000000000000000000000000815260040161107990615f63565b60405180910390fd5b61010260009054906101000a900460ff16156110d3576040517f08c379a00000000000000000000000000000000000000000000000000000000081526004016110ca906161f3565b60405180910390fd5b60008060ff54036110e7578091505061140c565b60ff5483106111945760ff549050600060ff819055506101005461010181905550610103600061010054815260200190815260200160002060010160009054906101000a90046fffffffffffffffffffffffffffffffff16610103600061010054815260200190815260200160002060010160106101000a8154816fffffffffffffffffffffffffffffffff02191690836fffffffffffffffffffffffffffffffff1602179055506113cc565b8290508060ff60008282546111a99190616213565b92505081905550600081905060006101015490505b6101005481116113c9576000610103600083815260200190815260200160002090508060010160109054906101000a90046fffffffffffffffffffffffffffffffff168160010160009054906101000a90046fffffffffffffffffffffffffffffffff1661122c9190616247565b6fffffffffffffffffffffffffffffffff168311156112b6578060010160109054906101000a90046fffffffffffffffffffffffffffffffff168160010160009054906101000a90046fffffffffffffffffffffffffffffffff166112919190616247565b6fffffffffffffffffffffffffffffffff16836112ae9190616213565b9250506113b6565b8060010160109054906101000a90046fffffffffffffffffffffffffffffffff168160010160009054906101000a90046fffffffffffffffffffffffffffffffff166113029190616247565b6fffffffffffffffffffffffffffffffff168314801561132457506101005482105b15611342576001826113369190616105565b610101819055506113b0565b828160010160108282829054906101000a90046fffffffffffffffffffffffffffffffff16611371919061628b565b92506101000a8154816fffffffffffffffffffffffffffffffff02191690836fffffffffffffffffffffffffffffffff16021790555081610101819055505b506113c9565b80806113c190616139565b9150506111be565b50505b7f1d5e667f0aeaf278369a7616dd3f42e38b09584722dafb969a86331c45e4e9658160ff546040516113ff9291906162cf565b60405180910390a1809150505b919050565b60008060005b61010154811161159057600061010360008381526020019081526020016000206040518060800160405290816000820160009054906101000a900473ffffffffffffffffffffffffffffffffffffffff1673ffffffffffffffffffffffffffffffffffffffff1673ffffffffffffffffffffffffffffffffffffffff1681526020016001820160009054906101000a90046fffffffffffffffffffffffffffffffff166fffffffffffffffffffffffffffffffff166fffffffffffffffffffffffffffffffff1681526020016001820160109054906101000a90046fffffffffffffffffffffffffffffffff166fffffffffffffffffffffffffffffffff166fffffffffffffffffffffffffffffffff1681526020016002820160009054906101000a900460ff1615151515815250509050611552826126bb565b1561157c5780602001516fffffffffffffffffffffffffffffffff16836115799190616105565b92505b50808061158890616139565b915050611417565b508091505090565b6115a56000801b8261316a565b50565b600060fd54905090565b6115bf6000801b33612865565b6115fe576040517f08c379a00000000000000000000000000000000000000000000000000000000081526004016115f590616344565b60405180910390fd5b600073ffffffffffffffffffffffffffffffffffffffff168273ffffffffffffffffffffffffffffffffffffffff160361166d576040517f08c379a0000000000000000000000000000000000000000000000000000000008152600401611664906163d6565b60405180910390fd5b61010860009054906101000a900473ffffffffffffffffffffffffffffffffffffffff1673ffffffffffffffffffffffffffffffffffffffff16636a9ecedb83836040518363ffffffff1660e01b81526004016116cb9291906163f6565b600060405180830381600087803b1580156116e557600080fd5b505af11580156116f9573d6000803e3d6000fd5b50505050600061010460008473ffffffffffffffffffffffffffffffffffffffff1673ffffffffffffffffffffffffffffffffffffffff16815260200190815260200160002054905081156117635780610109546117579190616105565b6101098190555061177a565b80610109546117729190616213565b610109819055505b505050565b6101005481565b60006117a5848484600160405180602001604052806000815250612196565b600190509392505050565b600060976000838152602001908152602001600020600101549050919050565b60006117df6000801b83612865565b9050919050565b6000855190508451811415806117fd575083518114155b80611809575082518114155b80611815575081518114155b1561184c576040517f263eee8d00000000000000000000000000000000000000000000000000000000815260040160405180910390fd5b60005b818110156118f1576118e687828151811061186d5761186c615f83565b5b602002602001015187838151811061188857611887615f83565b5b60200260200101518784815181106118a3576118a2615f83565b5b60200260200101518785815181106118be576118bd615f83565b5b60200260200101518786815181106118d9576118d8615f83565b5b6020026020010151612196565b80600101905061184f565b50505050505050565b6119026137a1565b61190a6137f0565b600033905060008211611952576040517f08c379a000000000000000000000000000000000000000000000000000000000815260040161194990616491565b60405180910390fd5b8161010460008373ffffffffffffffffffffffffffffffffffffffff1673ffffffffffffffffffffffffffffffffffffffff1681526020019081526020016000205410156119d5576040517f08c379a00000000000000000000000000000000000000000000000000000000081526004016119cc90616523565b60405180910390fd5b600061010860009054906101000a900473ffffffffffffffffffffffffffffffffffffffff1673ffffffffffffffffffffffffffffffffffffffff166301ba793b836040518263ffffffff1660e01b8152600401611a339190615a9d565b6020604051808303816000875af1158015611a52573d6000803e3d6000fd5b505050506040513d601f19601f82011682018060405250810190611a769190616558565b90508015611a95578261010954611a8d9190616213565b610109819055505b8261010460008473ffffffffffffffffffffffffffffffffffffffff1673ffffffffffffffffffffffffffffffffffffffff1681526020019081526020016000206000828254611ae59190616213565b925050819055508260fd6000828254611afe9190616213565b925050819055508260ff54611b139190616105565b60ff8190555060016101006000828254611b2d9190616105565b9250508190555060405180608001604052808373ffffffffffffffffffffffffffffffffffffffff168152602001846fffffffffffffffffffffffffffffffff16815260200160006fffffffffffffffffffffffffffffffff16815260200160001515815250610103600061010054815260200190815260200160002060008201518160000160006101000a81548173ffffffffffffffffffffffffffffffffffffffff021916908373ffffffffffffffffffffffffffffffffffffffff16021790555060208201518160010160006101000a8154816fffffffffffffffffffffffffffffffff02191690836fffffffffffffffffffffffffffffffff16021790555060408201518160010160106101000a8154816fffffffffffffffffffffffffffffffff02191690836fffffffffffffffffffffffffffffffff16021790555060608201518160020160006101000a81548160ff0219169083151502179055509050508173ffffffffffffffffffffffffffffffffffffffff16610100547f40c95cbc9b2d49befc4e6571127b1448fabda307788866476192b98b5d7f9bc08560ff54604051611ce09291906162cf565b60405180910390a35050611cf261383a565b50565b611cfe826117b0565b611d0781613844565b611d118383613858565b505050565b60006012905090565b611d27613939565b73ffffffffffffffffffffffffffffffffffffffff168173ffffffffffffffffffffffffffffffffffffffff1614611d94576040517f08c379a0000000000000000000000000000000000000000000000000000000008152600401611d8b906165f7565b60405180910390fd5b611d9e8282613941565b5050565b60ff5481565b611dd27f65d7a28e3265b37a6474929f336521b332c1681b933f6cb9f3376673440d862a33612865565b611e11576040517f08c379a0000000000000000000000000000000000000000000000000000000008152600401611e0890616344565b60405180910390fd5b611e19613a23565b565b6000611e477f65d7a28e3265b37a6474929f336521b332c1681b933f6cb9f3376673440d862a83612865565b9050919050565b611e59338383613a86565b5050565b6101015481565b60fe5481565b6060611e7582613c9b565b9050919050565b6000603360009054906101000a900460ff16905090565b60008273ffffffffffffffffffffffffffffffffffffffff168273ffffffffffffffffffffffffffffffffffffffff1603611f105761010460008373ffffffffffffffffffffffffffffffffffffffff1673ffffffffffffffffffffffffffffffffffffffff168152602001908152602001600020549050611f91565b61010560008373ffffffffffffffffffffffffffffffffffffffff1673ffffffffffffffffffffffffffffffffffffffff16815260200190815260200160002060008473ffffffffffffffffffffffffffffffffffffffff1673ffffffffffffffffffffffffffffffffffffffff1681526020019081526020016000205490505b92915050565b611fc17f65d7a28e3265b37a6474929f336521b332c1681b933f6cb9f3376673440d862a8261316a565b50565b611fd16000801b82611cf5565b50565b600061010460008373ffffffffffffffffffffffffffffffffffffffff1673ffffffffffffffffffffffffffffffffffffffff168152602001908152602001600020549050919050565b612026613d40565b6120306000613db7565b565b61010660009054906101000a900473ffffffffffffffffffffffffffffffffffffffff1673ffffffffffffffffffffffffffffffffffffffff163373ffffffffffffffffffffffffffffffffffffffff16146120c3576040517f08c379a00000000000000000000000000000000000000000000000000000000081526004016120ba90615f63565b60405180910390fd5b600061010860009054906101000a900473ffffffffffffffffffffffffffffffffffffffff1673ffffffffffffffffffffffffffffffffffffffff166301ba793b866040518263ffffffff1660e01b81526004016121219190615a9d565b6020604051808303816000875af1158015612140573d6000803e3d6000fd5b505050506040513d601f19601f820116820180604052508101906121649190616558565b9050801561218357836101095461217b9190616105565b610109819055505b61218f85858585613eb8565b5050505050565b8373ffffffffffffffffffffffffffffffffffffffff168573ffffffffffffffffffffffffffffffffffffffff16036121fb576040517fb9afb00000000000000000000000000000000000000000000000000000000000815260040160405180910390fd5b60003390508573ffffffffffffffffffffffffffffffffffffffff168173ffffffffffffffffffffffffffffffffffffffff161461231857600061010560008873ffffffffffffffffffffffffffffffffffffffff1673ffffffffffffffffffffffffffffffffffffffff16815260200190815260200160002060008373ffffffffffffffffffffffffffffffffffffffff1673ffffffffffffffffffffffffffffffffffffffff1681526020019081526020016000205490508085111561230057868183876040517ff3a6b6910000000000000000000000000000000000000000000000000000000081526004016122f79493929190616617565b60405180910390fd5b612316878387846123119190616213565b613a86565b505b612325868686868661401b565b505050505050565b6801bc16d674ec80000081565b600060fd54905090565b61234c613d40565b60003414612386576040517ff36ba73700000000000000000000000000000000000000000000000000000000815260040160405180910390fd5b6123908282614462565b5050565b6123be7f65d7a28e3265b37a6474929f336521b332c1681b933f6cb9f3376673440d862a82611cf5565b50565b6123eb7f65d7a28e3265b37a6474929f336521b332c1681b933f6cb9f3376673440d862a33612865565b61242a576040517f08c379a000000000000000000000000000000000000000000000000000000000815260040161242190616344565b60405180910390fd5b612432614596565b565b61010760009054906101000a900473ffffffffffffffffffffffffffffffffffffffff1673ffffffffffffffffffffffffffffffffffffffff163373ffffffffffffffffffffffffffffffffffffffff16146124c5576040517f08c379a00000000000000000000000000000000000000000000000000000000081526004016124bc90615f63565b60405180910390fd5b61010260009054906101000a900460ff1615612516576040517f08c379a000000000000000000000000000000000000000000000000000000000815260040161250d906166ce565b60405180910390fd5b6801bc16d674ec80000060ff541015612564576040517f08c379a000000000000000000000000000000000000000000000000000000000815260040161255b90616760565b60405180910390fd5b600161010260006101000a81548160ff02191690831515021790555060006801bc16d674ec8000008060ff5461259a91906167af565b60ff546125a79190616213565b6125b191906167e0565b90508061010660009054906101000a900473ffffffffffffffffffffffffffffffffffffffff1673ffffffffffffffffffffffffffffffffffffffff16633882b1c96040518163ffffffff1660e01b8152600401602060405180830381865afa158015612622573d6000803e3d6000fd5b505050506040513d601f19601f820116820180604052508101906126469190616826565b6126509190616105565b61010a819055507ffd0a8b592d8140089b4303d8dc4f150efa7f948643fe812272749bbd4a5d5ddd81604051612686919061508d565b60405180910390a150565b600060c960009054906101000a900473ffffffffffffffffffffffffffffffffffffffff16905090565b6000610101548211156126d15760009050612860565b600061010360008481526020019081526020016000206040518060800160405290816000820160009054906101000a900473ffffffffffffffffffffffffffffffffffffffff1673ffffffffffffffffffffffffffffffffffffffff1673ffffffffffffffffffffffffffffffffffffffff1681526020016001820160009054906101000a90046fffffffffffffffffffffffffffffffff166fffffffffffffffffffffffffffffffff166fffffffffffffffffffffffffffffffff1681526020016001820160109054906101000a90046fffffffffffffffffffffffffffffffff166fffffffffffffffffffffffffffffffff166fffffffffffffffffffffffffffffffff1681526020016002820160009054906101000a900460ff161515151581525050905080606001511561280d576000915050612860565b610101548314801561284b575080604001516fffffffffffffffffffffffffffffffff1681602001516fffffffffffffffffffffffffffffffff1614155b1561285a576000915050612860565b60019150505b919050565b60006097600084815260200190815260200160002060000160008373ffffffffffffffffffffffffffffffffffffffff1673ffffffffffffffffffffffffffffffffffffffff16815260200190815260200160002060009054906101000a900460ff16905092915050565b6128d8613d40565b60003414612912576040517ff36ba73700000000000000000000000000000000000000000000000000000000815260040160405180910390fd5b805182511461294d576040517f3bcc897900000000000000000000000000000000000000000000000000000000815260040160405180910390fd5b6000825103612988576040517f97da5f9500000000000000000000000000000000000000000000000000000000815260040160405180910390fd5b60005b82518110156129dd576129d28382815181106129aa576129a9615f83565b5b60200260200101518383815181106129c5576129c4615f83565b5b6020026020010151614462565b80600101905061298b565b505050565b6129ea614db2565b61010054821115612a30576040517f08c379a0000000000000000000000000000000000000000000000000000000008152600401612a279061689f565b60405180910390fd5b600061010360008481526020019081526020016000206040518060800160405290816000820160009054906101000a900473ffffffffffffffffffffffffffffffffffffffff1673ffffffffffffffffffffffffffffffffffffffff1673ffffffffffffffffffffffffffffffffffffffff1681526020016001820160009054906101000a90046fffffffffffffffffffffffffffffffff166fffffffffffffffffffffffffffffffff166fffffffffffffffffffffffffffffffff1681526020016001820160109054906101000a90046fffffffffffffffffffffffffffffffff166fffffffffffffffffffffffffffffffff166fffffffffffffffffffffffffffffffff1681526020016002820160009054906101000a900460ff161515151581525050905061010154831015612b9857806020015181604001906fffffffffffffffffffffffffffffffff1690816fffffffffffffffffffffffffffffffff16815250505b80915050919050565b6000801b81565b6000612bc7338484600160405180602001604052806000815250612196565b6001905092915050565b6101095481565b61010760009054906101000a900473ffffffffffffffffffffffffffffffffffffffff1673ffffffffffffffffffffffffffffffffffffffff163373ffffffffffffffffffffffffffffffffffffffff1614612c69576040517f08c379a0000000000000000000000000000000000000000000000000000000008152600401612c6090615f63565b60405180910390fd5b61010260009054906101000a900460ff16612cb9576040517f08c379a0000000000000000000000000000000000000000000000000000000008152600401612cb090616931565b60405180910390fd5b60006801bc16d674ec80000082612cd09190616951565b905060ff54811115612e1b5761010860009054906101000a900473ffffffffffffffffffffffffffffffffffffffff1673ffffffffffffffffffffffffffffffffffffffff1663f77ab01560ff5483612d299190616213565b6040518263ffffffff1660e01b8152600401612d45919061508d565b600060405180830381600087803b158015612d5f57600080fd5b505af1158015612d73573d6000803e3d6000fd5b5050505060ff549050600060ff819055506101005461010181905550610103600061010054815260200190815260200160002060010160009054906101000a90046fffffffffffffffffffffffffffffffff16610103600061010054815260200190815260200160002060010160106101000a8154816fffffffffffffffffffffffffffffffff02191690836fffffffffffffffffffffffffffffffff160217905550613050565b8060ff6000828254612e2d9190616213565b92505081905550600081905060006101015490505b61010054811161304d576000610103600083815260200190815260200160002090508060010160109054906101000a90046fffffffffffffffffffffffffffffffff168160010160009054906101000a90046fffffffffffffffffffffffffffffffff16612eb09190616247565b6fffffffffffffffffffffffffffffffff16831115612f3a578060010160109054906101000a90046fffffffffffffffffffffffffffffffff168160010160009054906101000a90046fffffffffffffffffffffffffffffffff16612f159190616247565b6fffffffffffffffffffffffffffffffff1683612f329190616213565b92505061303a565b8060010160109054906101000a90046fffffffffffffffffffffffffffffffff168160010160009054906101000a90046fffffffffffffffffffffffffffffffff16612f869190616247565b6fffffffffffffffffffffffffffffffff1683148015612fa857506101005482105b15612fc657600182612fba9190616105565b61010181905550613034565b828160010160108282829054906101000a90046fffffffffffffffffffffffffffffffff16612ff5919061628b565b92506101000a8154816fffffffffffffffffffffffffffffffff02191690836fffffffffffffffffffffffffffffffff16021790555081610101819055505b5061304d565b808061304590616139565b915050612e42565b50505b8060fe60008282546130629190616105565b9250508190555061010a548261010660009054906101000a900473ffffffffffffffffffffffffffffffffffffffff1673ffffffffffffffffffffffffffffffffffffffff16633882b1c96040518163ffffffff1660e01b8152600401602060405180830381865afa1580156130dc573d6000803e3d6000fd5b505050506040513d601f19601f820116820180604052508101906131009190616826565b61310a9190616105565b1061312c57600061010260006101000a81548160ff0219169083151502179055505b7eb0703bddcf30905a235a076777ec2feed729ff357d38b0744333b3f5628c748160ff5460405161315e9291906162cf565b60405180910390a15050565b613173826117b0565b61317c81613844565b6131868383613941565b505050565b60006131978284611e93565b905092915050565b6060815167ffffffffffffffff8111156131bc576131bb61525f565b5b6040519080825280602002602001820160405280156131ef57816020015b60608152602001906001900390816131da5790505b50905060005b825181101561324a5761322183828151811061321457613213615f83565b5b6020026020010151613c9b565b82828151811061323457613233615f83565b5b60200260200101819052508060010190506131f5565b50919050565b7f65d7a28e3265b37a6474929f336521b332c1681b933f6cb9f3376673440d862a81565b61327c613d40565b600073ffffffffffffffffffffffffffffffffffffffff168173ffffffffffffffffffffffffffffffffffffffff16036132eb576040517f08c379a00000000000000000000000000000000000000000000000000000000081526004016132e290616a05565b60405180910390fd5b6132f481613db7565b50565b60008060019054906101000a900460ff161590508080156133285750600160008054906101000a900460ff1660ff16105b806133555750613337306145f9565b1580156133545750600160008054906101000a900460ff1660ff16145b5b613394576040517f08c379a000000000000000000000000000000000000000000000000000000000815260040161338b90616a97565b60405180910390fd5b60016000806101000a81548160ff021916908360ff16021790555080156133d1576001600060016101000a81548160ff0219169083151502179055505b600073ffffffffffffffffffffffffffffffffffffffff168473ffffffffffffffffffffffffffffffffffffffff1603613440576040517f08c379a000000000000000000000000000000000000000000000000000000000815260040161343790616b29565b60405180910390fd5b600073ffffffffffffffffffffffffffffffffffffffff168373ffffffffffffffffffffffffffffffffffffffff16036134af576040517f08c379a00000000000000000000000000000000000000000000000000000000081526004016134a690616bbb565b60405180910390fd5b600073ffffffffffffffffffffffffffffffffffffffff168573ffffffffffffffffffffffffffffffffffffffff160361351e576040517f08c379a000000000000000000000000000000000000000000000000000000000815260040161351590616c4d565b60405180910390fd5b600073ffffffffffffffffffffffffffffffffffffffff168273ffffffffffffffffffffffffffffffffffffffff160361358d576040517f08c379a000000000000000000000000000000000000000000000000000000000815260040161358490616cdf565b60405180910390fd5b6136026040518060400160405280600e81526020017f5374616b65644c7978546f6b656e0000000000000000000000000000000000008152506040518060400160405280600481526020017f734c5958000000000000000000000000000000000000000000000000000000008152508761461c565b61360b85614735565b8361010660006101000a81548173ffffffffffffffffffffffffffffffffffffffff021916908373ffffffffffffffffffffffffffffffffffffffff1602179055508261010760006101000a81548173ffffffffffffffffffffffffffffffffffffffff021916908373ffffffffffffffffffffffffffffffffffffffff1602179055508161010860006101000a81548173ffffffffffffffffffffffffffffffffffffffff021916908373ffffffffffffffffffffffffffffffffffffffff160217905550801561372a5760008060016101000a81548160ff0219169083151502179055507f7f26b83ff96e1f2b6a682f133852f6798a09c465da95921460cefb384740249860016040516137219190616d44565b60405180910390a15b5050505050565b61373d33826000613a86565b50565b600063629aa69460e01b7bffffffffffffffffffffffffffffffffffffffffffffffffffffffff1916827bffffffffffffffffffffffffffffffffffffffffffffffffffffffff1916148061379a5750613799826147be565b5b9050919050565b600260cb54036137e6576040517f08c379a00000000000000000000000000000000000000000000000000000000081526004016137dd90616dab565b60405180910390fd5b600260cb81905550565b6137f8611e7c565b15613838576040517f08c379a000000000000000000000000000000000000000000000000000000000815260040161382f90616e17565b60405180910390fd5b565b600160cb81905550565b61385581613850613939565b614828565b50565b6138628282612865565b6139355760016097600084815260200190815260200160002060000160008373ffffffffffffffffffffffffffffffffffffffff1673ffffffffffffffffffffffffffffffffffffffff16815260200190815260200160002060006101000a81548160ff0219169083151502179055506138da613939565b73ffffffffffffffffffffffffffffffffffffffff168173ffffffffffffffffffffffffffffffffffffffff16837f2f8788117e7eff1d82e926ec794901d17c78024a50270940304540a733656f0d60405160405180910390a45b5050565b600033905090565b61394b8282612865565b15613a1f5760006097600084815260200190815260200160002060000160008373ffffffffffffffffffffffffffffffffffffffff1673ffffffffffffffffffffffffffffffffffffffff16815260200190815260200160002060006101000a81548160ff0219169083151502179055506139c4613939565b73ffffffffffffffffffffffffffffffffffffffff168173ffffffffffffffffffffffffffffffffffffffff16837ff6391f5c32d9c69d2a47ea670b442974b53935d1edc7fd64eb21e047a839171b60405160405180910390a45b5050565b613a2b6148ad565b6000603360006101000a81548160ff0219169083151502179055507f5db9ee0a495bf2e6ff9c91a7834c1ba4fdd244a5e8aa4e537bd38aeae4b073aa613a6f613939565b604051613a7c9190615a9d565b60405180910390a1565b600073ffffffffffffffffffffffffffffffffffffffff168273ffffffffffffffffffffffffffffffffffffffff1603613aec576040517f6355e76600000000000000000000000000000000000000000000000000000000815260040160405180910390fd5b8273ffffffffffffffffffffffffffffffffffffffff168273ffffffffffffffffffffffffffffffffffffffff1603613b51576040517fdab7504700000000000000000000000000000000000000000000000000000000815260040160405180910390fd5b8061010560008573ffffffffffffffffffffffffffffffffffffffff1673ffffffffffffffffffffffffffffffffffffffff16815260200190815260200160002060008473ffffffffffffffffffffffffffffffffffffffff1673ffffffffffffffffffffffffffffffffffffffff1681526020019081526020016000208190555060008114613c3b57808373ffffffffffffffffffffffffffffffffffffffff168373ffffffffffffffffffffffffffffffffffffffff167fd66aff874162a96578e919097b6f6d153dfd89a5cec41bb331fdb0c4aec16e2c60405160405180910390a4613c96565b8273ffffffffffffffffffffffffffffffffffffffff168273ffffffffffffffffffffffffffffffffffffffff167f50546e66e5f44d728365dc3908c63bc5cfeeab470722c1677e3073a6ac294aa160405160405180910390a35b505050565b606060ca60008381526020019081526020016000208054613cbb90616e66565b80601f0160208091040260200160405190810160405280929190818152602001828054613ce790616e66565b8015613d345780601f10613d0957610100808354040283529160200191613d34565b820191906000526020600020905b815481529060010190602001808311613d1757829003601f168201915b50505050509050919050565b3373ffffffffffffffffffffffffffffffffffffffff16613d5f612691565b73ffffffffffffffffffffffffffffffffffffffff1614613db5576040517f08c379a0000000000000000000000000000000000000000000000000000000008152600401613dac90616ee3565b60405180910390fd5b565b613dbf612691565b73ffffffffffffffffffffffffffffffffffffffff168173ffffffffffffffffffffffffffffffffffffffff1614613eb557600060c960009054906101000a900473ffffffffffffffffffffffffffffffffffffffff1690508160c960006101000a81548173ffffffffffffffffffffffffffffffffffffffff021916908373ffffffffffffffffffffffffffffffffffffffff1602179055508173ffffffffffffffffffffffffffffffffffffffff168173ffffffffffffffffffffffffffffffffffffffff167f8be0079c531659141344cd1fd0a4f28419497f9722a3daafe3b4186f6b6457e060405160405180910390a3505b50565b600073ffffffffffffffffffffffffffffffffffffffff168473ffffffffffffffffffffffffffffffffffffffff1603613f1e576040517fd2d5ec3000000000000000000000000000000000000000000000000000000000815260040160405180910390fd5b60003390508360fd6000828254613f359190616105565b925050819055508361010460008773ffffffffffffffffffffffffffffffffffffffff1673ffffffffffffffffffffffffffffffffffffffff1681526020019081526020016000206000828254613f8c9190616105565b925050819055508473ffffffffffffffffffffffffffffffffffffffff16600073ffffffffffffffffffffffffffffffffffffffff168273ffffffffffffffffffffffffffffffffffffffff167f3997e418d2cef0b3b0e907b1e39605c3f7d32dbd061e82ea5b4a770d46a160a687878760405161400c93929190616f03565b60405180910390a45050505050565b6140236137f0565b61010860009054906101000a900473ffffffffffffffffffffffffffffffffffffffff1673ffffffffffffffffffffffffffffffffffffffff1663b4c6e4166040518163ffffffff1660e01b8152600401602060405180830381865afa158015614091573d6000803e3d6000fd5b505050506040513d601f19601f820116820180604052508101906140b59190616826565b43116140f6576040517f08c379a00000000000000000000000000000000000000000000000000000000081526004016140ed90616fb3565b60405180910390fd5b600073ffffffffffffffffffffffffffffffffffffffff168573ffffffffffffffffffffffffffffffffffffffff16148061415d5750600073ffffffffffffffffffffffffffffffffffffffff168473ffffffffffffffffffffffffffffffffffffffff16145b15614194576040517fd2d5ec3000000000000000000000000000000000000000000000000000000000815260040160405180910390fd5b600061010460008773ffffffffffffffffffffffffffffffffffffffff1673ffffffffffffffffffffffffffffffffffffffff16815260200190815260200160002054905080841115614222578086856040517f08d4794900000000000000000000000000000000000000000000000000000000815260040161421993929190616fd3565b60405180910390fd5b60008061010860009054906101000a900473ffffffffffffffffffffffffffffffffffffffff1673ffffffffffffffffffffffffffffffffffffffff16633b0c9d9089896040518363ffffffff1660e01b815260040161428392919061700a565b60408051808303816000875af11580156142a1573d6000803e3d6000fd5b505050506040513d601f19601f820116820180604052508101906142c59190617033565b9150915081806142d25750805b80156142e557508180156142e35750805b155b15614324576000610109549050821561430b5786816143049190616213565b905061431a565b86816143179190616105565b90505b8061010981905550505b60003390508661010460008b73ffffffffffffffffffffffffffffffffffffffff1673ffffffffffffffffffffffffffffffffffffffff16815260200190815260200160002060008282546143799190616213565b925050819055508661010460008a73ffffffffffffffffffffffffffffffffffffffff1673ffffffffffffffffffffffffffffffffffffffff16815260200190815260200160002060008282546143d09190616105565b925050819055508773ffffffffffffffffffffffffffffffffffffffff168973ffffffffffffffffffffffffffffffffffffffff168273ffffffffffffffffffffffffffffffffffffffff167f3997e418d2cef0b3b0e907b1e39605c3f7d32dbd061e82ea5b4a770d46a160a68a8a8a60405161444f93929190616f03565b60405180910390a4505050505050505050565b7fdeba1e292f8ba88238e10ab3c7f88bd4be4fac56cad5194b6ecceaf653468af160001b82036144be576040517f85c169bd00000000000000000000000000000000000000000000000000000000815260040160405180910390fd5b7f2f0a68ab07768e01943a599e73362a0e17a63a72e94dd2e384d2c1d4db93275660001b820361451a576040517f76755b3800000000000000000000000000000000000000000000000000000000815260040160405180910390fd5b8060ca6000848152602001908152602001600020908161453a9190617215565b50817fece574603820d07bc9b91f2a932baadf4628aabcb8afba49776529c14a6104b26101008351111561457b576145768360006101006148f6565b61457d565b825b60405161458a91906158b6565b60405180910390a25050565b61459e6137f0565b6001603360006101000a81548160ff0219169083151502179055507f62e78cea01bee320cd4e420270b5ea74000d11b0c9f74754ebdbfc544b05a2586145e2613939565b6040516145ef9190615a9d565b60405180910390a1565b6000808273ffffffffffffffffffffffffffffffffffffffff163b119050919050565b600060019054906101000a900460ff1661466b576040517f08c379a000000000000000000000000000000000000000000000000000000000815260040161466290617359565b60405180910390fd5b61467481614a14565b6146d67feafec4d89fa9619884b60000a4d96624a38f7ac2d8d9a604ecf07c12c77e480c60001b6040518060400160405280600481526020017fa4d9662400000000000000000000000000000000000000000000000000000000815250614ade565b6147037fdeba1e292f8ba88238e10ab3c7f88bd4be4fac56cad5194b6ecceaf653468af160001b84614ade565b6147307f2f0a68ab07768e01943a599e73362a0e17a63a72e94dd2e384d2c1d4db93275660001b83614ade565b505050565b600060019054906101000a900460ff16614784576040517f08c379a000000000000000000000000000000000000000000000000000000000815260040161477b90617359565b60405180910390fd5b6147916000801b82614b3b565b6147bb7f65d7a28e3265b37a6474929f336521b332c1681b933f6cb9f3376673440d862a82614b3b565b50565b60007f01ffc9a7000000000000000000000000000000000000000000000000000000007bffffffffffffffffffffffffffffffffffffffffffffffffffffffff1916827bffffffffffffffffffffffffffffffffffffffffffffffffffffffff1916149050919050565b6148328282612865565b6148a95761483f81614b49565b61484d8360001c6020614b76565b60405160200161485e929190617458565b6040516020818303038152906040526040517f08c379a00000000000000000000000000000000000000000000000000000000081526004016148a091906174cb565b60405180910390fd5b5050565b6148b5611e7c565b6148f4576040517f08c379a00000000000000000000000000000000000000000000000000000000081526004016148eb90617539565b60405180910390fd5b565b606081601f836149069190616105565b1015614947576040517f08c379a000000000000000000000000000000000000000000000000000000000815260040161493e906175a5565b60405180910390fd5b81836149539190616105565b84511015614996576040517f08c379a000000000000000000000000000000000000000000000000000000000815260040161498d90617611565b60405180910390fd5b60608215600081146149b75760405191506000825260208201604052614a08565b6040519150601f8416801560200281840101858101878315602002848b0101015b818310156149f557805183526020830192506020810190506149d8565b50868552601f19601f8301166040525050505b50809150509392505050565b600060019054906101000a900460ff16614a63576040517f08c379a0000000000000000000000000000000000000000000000000000000008152600401614a5a90617359565b60405180910390fd5b600073ffffffffffffffffffffffffffffffffffffffff168173ffffffffffffffffffffffffffffffffffffffff1603614ad2576040517f08c379a0000000000000000000000000000000000000000000000000000000008152600401614ac990616a05565b60405180910390fd5b614adb81613db7565b50565b8060ca60008481526020019081526020016000209081614afe9190617215565b50817fece574603820d07bc9b91f2a932baadf4628aabcb8afba49776529c14a6104b282604051614b2f91906158b6565b60405180910390a25050565b614b458282613858565b5050565b6060614b6f8273ffffffffffffffffffffffffffffffffffffffff16601460ff16614b76565b9050919050565b606060006002836002614b899190616951565b614b939190616105565b67ffffffffffffffff811115614bac57614bab61525f565b5b6040519080825280601f01601f191660200182016040528015614bde5781602001600182028036833780820191505090505b5090507f300000000000000000000000000000000000000000000000000000000000000081600081518110614c1657614c15615f83565b5b60200101907effffffffffffffffffffffffffffffffffffffffffffffffffffffffffffff1916908160001a9053507f780000000000000000000000000000000000000000000000000000000000000081600181518110614c7a57614c79615f83565b5b60200101907effffffffffffffffffffffffffffffffffffffffffffffffffffffffffffff1916908160001a90535060006001846002614cba9190616951565b614cc49190616105565b90505b6001811115614d64577f3031323334353637383961626364656600000000000000000000000000000000600f861660108110614d0657614d05615f83565b5b1a60f81b828281518110614d1d57614d1c615f83565b5b60200101907effffffffffffffffffffffffffffffffffffffffffffffffffffffffffffff1916908160001a905350600485901c945080614d5d90617631565b9050614cc7565b5060008414614da8576040517f08c379a0000000000000000000000000000000000000000000000000000000008152600401614d9f906176a6565b60405180910390fd5b8091505092915050565b6040518060800160405280600073ffffffffffffffffffffffffffffffffffffffff16815260200160006fffffffffffffffffffffffffffffffff16815260200160006fffffffffffffffffffffffffffffffff1681526020016000151581525090565b6000604051905090565b600080fd5b600080fd5b60007fffffffff0000000000000000000000000000000000000000000000000000000082169050919050565b614e5f81614e2a565b8114614e6a57600080fd5b50565b600081359050614e7c81614e56565b92915050565b600060208284031215614e9857614e97614e20565b5b6000614ea684828501614e6d565b91505092915050565b60008115159050919050565b614ec481614eaf565b82525050565b6000602082019050614edf6000830184614ebb565b92915050565b600073ffffffffffffffffffffffffffffffffffffffff82169050919050565b6000614f1082614ee5565b9050919050565b614f2081614f05565b8114614f2b57600080fd5b50565b600081359050614f3d81614f17565b92915050565b6000819050919050565b614f5681614f43565b8114614f6157600080fd5b50565b600081359050614f7381614f4d565b92915050565b60008060408385031215614f9057614f8f614e20565b5b6000614f9e85828601614f2e565b9250506020614faf85828601614f64565b9150509250929050565b600080fd5b600080fd5b600080fd5b60008083601f840112614fde57614fdd614fb9565b5b8235905067ffffffffffffffff811115614ffb57614ffa614fbe565b5b60208301915083602082028301111561501757615016614fc3565b5b9250929050565b60008060006040848603121561503757615036614e20565b5b600061504586828701614f2e565b935050602084013567ffffffffffffffff81111561506657615065614e25565b5b61507286828701614fc8565b92509250509250925092565b61508781614f43565b82525050565b60006020820190506150a2600083018461507e565b92915050565b6000602082840312156150be576150bd614e20565b5b60006150cc84828501614f64565b91505092915050565b6000602082840312156150eb576150ea614e20565b5b60006150f984828501614f2e565b91505092915050565b61510b81614eaf565b811461511657600080fd5b50565b60008135905061512881615102565b92915050565b6000806040838503121561514557615144614e20565b5b600061515385828601614f2e565b925050602061516485828601615119565b9150509250929050565b60008060006060848603121561518757615186614e20565b5b600061519586828701614f2e565b93505060206151a686828701614f2e565b92505060406151b786828701614f64565b9150509250925092565b6000819050919050565b6151d4816151c1565b81146151df57600080fd5b50565b6000813590506151f1816151cb565b92915050565b60006020828403121561520d5761520c614e20565b5b600061521b848285016151e2565b91505092915050565b61522d816151c1565b82525050565b60006020820190506152486000830184615224565b92915050565b6000601f19601f8301169050919050565b7f4e487b7100000000000000000000000000000000000000000000000000000000600052604160045260246000fd5b6152978261524e565b810181811067ffffffffffffffff821117156152b6576152b561525f565b5b80604052505050565b60006152c9614e16565b90506152d5828261528e565b919050565b600067ffffffffffffffff8211156152f5576152f461525f565b5b602082029050602081019050919050565b6000615319615314846152da565b6152bf565b9050808382526020820190506020840283018581111561533c5761533b614fc3565b5b835b8181101561536557806153518882614f2e565b84526020840193505060208101905061533e565b5050509392505050565b600082601f83011261538457615383614fb9565b5b8135615394848260208601615306565b91505092915050565b600067ffffffffffffffff8211156153b8576153b761525f565b5b602082029050602081019050919050565b60006153dc6153d78461539d565b6152bf565b905080838252602082019050602084028301858111156153ff576153fe614fc3565b5b835b8181101561542857806154148882614f64565b845260208401935050602081019050615401565b5050509392505050565b600082601f83011261544757615446614fb9565b5b81356154578482602086016153c9565b91505092915050565b600067ffffffffffffffff82111561547b5761547a61525f565b5b602082029050602081019050919050565b600061549f61549a84615460565b6152bf565b905080838252602082019050602084028301858111156154c2576154c1614fc3565b5b835b818110156154eb57806154d78882615119565b8452602084019350506020810190506154c4565b5050509392505050565b600082601f83011261550a57615509614fb9565b5b813561551a84826020860161548c565b91505092915050565b600067ffffffffffffffff82111561553e5761553d61525f565b5b602082029050602081019050919050565b600080fd5b600067ffffffffffffffff82111561556f5761556e61525f565b5b6155788261524e565b9050602081019050919050565b82818337600083830152505050565b60006155a76155a284615554565b6152bf565b9050828152602081018484840111156155c3576155c261554f565b5b6155ce848285615585565b509392505050565b600082601f8301126155eb576155ea614fb9565b5b81356155fb848260208601615594565b91505092915050565b600061561761561284615523565b6152bf565b9050808382526020820190506020840283018581111561563a57615639614fc3565b5b835b8181101561568157803567ffffffffffffffff81111561565f5761565e614fb9565b5b80860161566c89826155d6565b8552602085019450505060208101905061563c565b5050509392505050565b600082601f8301126156a05761569f614fb9565b5b81356156b0848260208601615604565b91505092915050565b600080600080600060a086880312156156d5576156d4614e20565b5b600086013567ffffffffffffffff8111156156f3576156f2614e25565b5b6156ff8882890161536f565b955050602086013567ffffffffffffffff8111156157205761571f614e25565b5b61572c8882890161536f565b945050604086013567ffffffffffffffff81111561574d5761574c614e25565b5b61575988828901615432565b935050606086013567ffffffffffffffff81111561577a57615779614e25565b5b615786888289016154f5565b925050608086013567ffffffffffffffff8111156157a7576157a6614e25565b5b6157b38882890161568b565b9150509295509295909350565b600080604083850312156157d7576157d6614e20565b5b60006157e5858286016151e2565b92505060206157f685828601614f2e565b9150509250929050565b600060ff82169050919050565b61581681615800565b82525050565b6000602082019050615831600083018461580d565b92915050565b600081519050919050565b600082825260208201905092915050565b60005b83811015615871578082015181840152602081019050615856565b60008484015250505050565b600061588882615837565b6158928185615842565b93506158a2818560208601615853565b6158ab8161524e565b840191505092915050565b600060208201905081810360008301526158d0818461587d565b905092915050565b600080604083850312156158ef576158ee614e20565b5b60006158fd85828601614f2e565b925050602061590e85828601614f2e565b9150509250929050565b6000806000806080858703121561593257615931614e20565b5b600061594087828801614f2e565b945050602061595187828801614f64565b935050604061596287828801615119565b925050606085013567ffffffffffffffff81111561598357615982614e25565b5b61598f878288016155d6565b91505092959194509250565b600080600080600060a086880312156159b7576159b6614e20565b5b60006159c588828901614f2e565b95505060206159d688828901614f2e565b94505060406159e788828901614f64565b93505060606159f888828901615119565b925050608086013567ffffffffffffffff811115615a1957615a18614e25565b5b615a25888289016155d6565b9150509295509295909350565b60008060408385031215615a4957615a48614e20565b5b6000615a57858286016151e2565b925050602083013567ffffffffffffffff811115615a7857615a77614e25565b5b615a84858286016155d6565b9150509250929050565b615a9781614f05565b82525050565b6000602082019050615ab26000830184615a8e565b92915050565b600067ffffffffffffffff821115615ad357615ad261525f565b5b602082029050602081019050919050565b6000615af7615af284615ab8565b6152bf565b90508083825260208201905060208402830185811115615b1a57615b19614fc3565b5b835b81811015615b435780615b2f88826151e2565b845260208401935050602081019050615b1c565b5050509392505050565b600082601f830112615b6257615b61614fb9565b5b8135615b72848260208601615ae4565b91505092915050565b60008060408385031215615b9257615b91614e20565b5b600083013567ffffffffffffffff811115615bb057615baf614e25565b5b615bbc85828601615b4d565b925050602083013567ffffffffffffffff811115615bdd57615bdc614e25565b5b615be98582860161568b565b9150509250929050565b615bfc81614f05565b82525050565b60006fffffffffffffffffffffffffffffffff82169050919050565b615c2781615c02565b82525050565b615c3681614eaf565b82525050565b608082016000820151615c526000850182615bf3565b506020820151615c656020850182615c1e565b506040820151615c786040850182615c1e565b506060820151615c8b6060850182615c2d565b50505050565b6000608082019050615ca66000830184615c3c565b92915050565b600060208284031215615cc257615cc1614e20565b5b600082013567ffffffffffffffff811115615ce057615cdf614e25565b5b615cec84828501615b4d565b91505092915050565b600081519050919050565b600082825260208201905092915050565b6000819050602082019050919050565b600082825260208201905092915050565b6000615d3d82615837565b615d478185615d21565b9350615d57818560208601615853565b615d608161524e565b840191505092915050565b6000615d778383615d32565b905092915050565b6000602082019050919050565b6000615d9782615cf5565b615da18185615d00565b935083602082028501615db385615d11565b8060005b85811015615def5784840389528151615dd08582615d6b565b9450615ddb83615d7f565b925060208a01995050600181019050615db7565b50829750879550505050505092915050565b60006020820190508181036000830152615e1b8184615d8c565b905092915050565b6000615e2e82614f05565b9050919050565b615e3e81615e23565b8114615e4957600080fd5b50565b600081359050615e5b81615e35565b92915050565b6000615e6c82614f05565b9050919050565b615e7c81615e61565b8114615e8757600080fd5b50565b600081359050615e9981615e73565b92915050565b60008060008060808587031215615eb957615eb8614e20565b5b6000615ec787828801614f2e565b9450506020615ed887828801615e4c565b9350506040615ee987828801614f2e565b9250506060615efa87828801615e8a565b91505092959194509250565b600082825260208201905092915050565b7f5374616b65644c7978546f6b656e3a206163636573732064656e696564000000600082015250565b6000615f4d601d83615f06565b9150615f5882615f17565b602082019050919050565b60006020820190508181036000830152615f7c81615f40565b9050919050565b7f4e487b7100000000000000000000000000000000000000000000000000000000600052603260045260246000fd5b7f5374616b65644c7978546f6b656e3a20756e7374616b6520726571756573742060008201527f6e6f7420636c61696d61626c6500000000000000000000000000000000000000602082015250565b600061600e602d83615f06565b915061601982615fb2565b604082019050919050565b6000602082019050818103600083015261603d81616001565b9050919050565b7f5374616b65644c7978546f6b656e3a20756e7374616b6520726571756573742060008201527f6e6f742066726f6d2074686973206163636f756e740000000000000000000000602082015250565b60006160a0603583615f06565b91506160ab82616044565b604082019050919050565b600060208201905081810360008301526160cf81616093565b9050919050565b7f4e487b7100000000000000000000000000000000000000000000000000000000600052601160045260246000fd5b600061611082614f43565b915061611b83614f43565b9250828201905080821115616133576161326160d6565b5b92915050565b600061614482614f43565b91507fffffffffffffffffffffffffffffffffffffffffffffffffffffffffffffffff8203616176576161756160d6565b5b600182019050919050565b7f5374616b65644c7978546f6b656e3a20756e7374616b696e6720696e2070726f60008201527f6772657373000000000000000000000000000000000000000000000000000000602082015250565b60006161dd602583615f06565b91506161e882616181565b604082019050919050565b6000602082019050818103600083015261620c816161d0565b9050919050565b600061621e82614f43565b915061622983614f43565b9250828203905081811115616241576162406160d6565b5b92915050565b600061625282615c02565b915061625d83615c02565b925082820390506fffffffffffffffffffffffffffffffff811115616285576162846160d6565b5b92915050565b600061629682615c02565b91506162a183615c02565b925082820190506fffffffffffffffffffffffffffffffff8111156162c9576162c86160d6565b5b92915050565b60006040820190506162e4600083018561507e565b6162f1602083018461507e565b9392505050565b7f4f776e61626c655061757361626c653a206163636573732064656e6965640000600082015250565b600061632e601e83615f06565b9150616339826162f8565b602082019050919050565b6000602082019050818103600083015261635d81616321565b9050919050565b7f5374616b65644c7978546f6b656e3a20696e76616c696420746f6b656e4f776e60008201527f6572000000000000000000000000000000000000000000000000000000000000602082015250565b60006163c0602283615f06565b91506163cb82616364565b604082019050919050565b600060208201905081810360008301526163ef816163b3565b9050919050565b600060408201905061640b6000830185615a8e565b6164186020830184614ebb565b9392505050565b7f5374616b65644c7978546f6b656e3a20616d6f756e74206d757374206265206760008201527f726561746572207468616e207a65726f00000000000000000000000000000000602082015250565b600061647b603083615f06565b91506164868261641f565b604082019050919050565b600060208201905081810360008301526164aa8161646e565b9050919050565b7f5374616b65644c7978546f6b656e3a20696e73756666696369656e742062616c60008201527f616e636500000000000000000000000000000000000000000000000000000000602082015250565b600061650d602483615f06565b9150616518826164b1565b604082019050919050565b6000602082019050818103600083015261653c81616500565b9050919050565b60008151905061655281615102565b92915050565b60006020828403121561656e5761656d614e20565b5b600061657c84828501616543565b91505092915050565b7f416363657373436f6e74726f6c3a2063616e206f6e6c792072656e6f756e636560008201527f20726f6c657320666f722073656c660000000000000000000000000000000000602082015250565b60006165e1602f83615f06565b91506165ec82616585565b604082019050919050565b60006020820190508181036000830152616610816165d4565b9050919050565b600060808201905061662c6000830187615a8e565b616639602083018661507e565b6166466040830185615a8e565b616653606083018461507e565b95945050505050565b7f5374616b65644c7978546f6b656e3a20756e7374616b696e6720616c7265616460008201527f7920696e2070726f677265737300000000000000000000000000000000000000602082015250565b60006166b8602d83615f06565b91506166c38261665c565b604082019050919050565b600060208201905081810360008301526166e7816166ab565b9050919050565b7f5374616b65644c7978546f6b656e3a20696e73756666696369656e742070656e60008201527f64696e6720756e7374616b650000000000000000000000000000000000000000602082015250565b600061674a602c83615f06565b9150616755826166ee565b604082019050919050565b600060208201905081810360008301526167798161673d565b9050919050565b7f4e487b7100000000000000000000000000000000000000000000000000000000600052601260045260246000fd5b60006167ba82614f43565b91506167c583614f43565b9250826167d5576167d4616780565b5b828206905092915050565b60006167eb82614f43565b91506167f683614f43565b92508261680657616805616780565b5b828204905092915050565b60008151905061682081614f4d565b92915050565b60006020828403121561683c5761683b614e20565b5b600061684a84828501616811565b91505092915050565b7f5374616b65644c7978546f6b656e3a20696e76616c696420696e646578000000600082015250565b6000616889601d83615f06565b915061689482616853565b602082019050919050565b600060208201905081810360008301526168b88161687c565b9050919050565b7f5374616b65644c7978546f6b656e3a20756e7374616b696e67206e6f7420696e60008201527f2070726f63657373000000000000000000000000000000000000000000000000602082015250565b600061691b602883615f06565b9150616926826168bf565b604082019050919050565b6000602082019050818103600083015261694a8161690e565b9050919050565b600061695c82614f43565b915061696783614f43565b925082820261697581614f43565b9150828204841483151761698c5761698b6160d6565b5b5092915050565b7f4f776e61626c653a206e6577206f776e657220697320746865207a65726f206160008201527f6464726573730000000000000000000000000000000000000000000000000000602082015250565b60006169ef602683615f06565b91506169fa82616993565b604082019050919050565b60006020820190508181036000830152616a1e816169e2565b9050919050565b7f496e697469616c697a61626c653a20636f6e747261637420697320616c72656160008201527f647920696e697469616c697a6564000000000000000000000000000000000000602082015250565b6000616a81602e83615f06565b9150616a8c82616a25565b604082019050919050565b60006020820190508181036000830152616ab081616a74565b9050919050565b7f5374616b65644c7978546f6b656e3a20706f6f6c20616464726573732063616e60008201527f6e6f74206265207a65726f000000000000000000000000000000000000000000602082015250565b6000616b13602b83615f06565b9150616b1e82616ab7565b604082019050919050565b60006020820190508181036000830152616b4281616b06565b9050919050565b7f5374616b65644c7978546f6b656e3a206f7261636c657320616464726573732060008201527f63616e6e6f74206265207a65726f000000000000000000000000000000000000602082015250565b6000616ba5602e83615f06565b9150616bb082616b49565b604082019050919050565b60006020820190508181036000830152616bd481616b98565b9050919050565b7f5374616b65644c7978546f6b656e3a2061646d696e206164647265737320636160008201527f6e6e6f74206265207a65726f0000000000000000000000000000000000000000602082015250565b6000616c37602c83615f06565b9150616c4282616bdb565b604082019050919050565b60006020820190508181036000830152616c6681616c2a565b9050919050565b7f5374616b65644c7978546f6b656e3a207265776172647320616464726573732060008201527f63616e6e6f74206265207a65726f000000000000000000000000000000000000602082015250565b6000616cc9602e83615f06565b9150616cd482616c6d565b604082019050919050565b60006020820190508181036000830152616cf881616cbc565b9050919050565b6000819050919050565b6000819050919050565b6000616d2e616d29616d2484616cff565b616d09565b615800565b9050919050565b616d3e81616d13565b82525050565b6000602082019050616d596000830184616d35565b92915050565b7f5265656e7472616e637947756172643a207265656e7472616e742063616c6c00600082015250565b6000616d95601f83615f06565b9150616da082616d5f565b602082019050919050565b60006020820190508181036000830152616dc481616d88565b9050919050565b7f5061757361626c653a2070617573656400000000000000000000000000000000600082015250565b6000616e01601083615f06565b9150616e0c82616dcb565b602082019050919050565b60006020820190508181036000830152616e3081616df4565b9050919050565b7f4e487b7100000000000000000000000000000000000000000000000000000000600052602260045260246000fd5b60006002820490506001821680616e7e57607f821691505b602082108103616e9157616e90616e37565b5b50919050565b7f4f776e61626c653a2063616c6c6572206973206e6f7420746865206f776e6572600082015250565b6000616ecd602083615f06565b9150616ed882616e97565b602082019050919050565b60006020820190508181036000830152616efc81616ec0565b9050919050565b6000606082019050616f18600083018661507e565b616f256020830185614ebb565b8181036040830152616f37818461587d565b9050949350505050565b7f5374616b65644c7978546f6b656e3a2063616e6e6f74207472616e736665722060008201527f647572696e672072657761726473207570646174650000000000000000000000602082015250565b6000616f9d603583615f06565b9150616fa882616f41565b604082019050919050565b60006020820190508181036000830152616fcc81616f90565b9050919050565b6000606082019050616fe8600083018661507e565b616ff56020830185615a8e565b617002604083018461507e565b949350505050565b600060408201905061701f6000830185615a8e565b61702c6020830184615a8e565b9392505050565b6000806040838503121561704a57617049614e20565b5b600061705885828601616543565b925050602061706985828601616543565b9150509250929050565b60008190508160005260206000209050919050565b60006020601f8301049050919050565b600082821b905092915050565b6000600883026170d57fffffffffffffffffffffffffffffffffffffffffffffffffffffffffffffffff82617098565b6170df8683617098565b95508019841693508086168417925050509392505050565b600061711261710d61710884614f43565b616d09565b614f43565b9050919050565b6000819050919050565b61712c836170f7565b61714061713882617119565b8484546170a5565b825550505050565b600090565b617155617148565b617160818484617123565b505050565b5b818110156171845761717960008261714d565b600181019050617166565b5050565b601f8211156171c95761719a81617073565b6171a384617088565b810160208510156171b2578190505b6171c66171be85617088565b830182617165565b50505b505050565b600082821c905092915050565b60006171ec600019846008026171ce565b1980831691505092915050565b600061720583836171db565b9150826002028217905092915050565b61721e82615837565b67ffffffffffffffff8111156172375761723661525f565b5b6172418254616e66565b61724c828285617188565b600060209050601f83116001811461727f576000841561726d578287015190505b61727785826171f9565b8655506172df565b601f19841661728d86617073565b60005b828110156172b557848901518255600182019150602085019450602081019050617290565b868310156172d257848901516172ce601f8916826171db565b8355505b6001600288020188555050505b505050505050565b7f496e697469616c697a61626c653a20636f6e7472616374206973206e6f74206960008201527f6e697469616c697a696e67000000000000000000000000000000000000000000602082015250565b6000617343602b83615f06565b915061734e826172e7565b604082019050919050565b6000602082019050818103600083015261737281617336565b9050919050565b600081905092915050565b7f416363657373436f6e74726f6c3a206163636f756e7420000000000000000000600082015250565b60006173ba601783617379565b91506173c582617384565b601782019050919050565b600081519050919050565b60006173e6826173d0565b6173f08185617379565b9350617400818560208601615853565b80840191505092915050565b7f206973206d697373696e6720726f6c6520000000000000000000000000000000600082015250565b6000617442601183617379565b915061744d8261740c565b601182019050919050565b6000617463826173ad565b915061746f82856173db565b915061747a82617435565b915061748682846173db565b91508190509392505050565b600061749d826173d0565b6174a78185615f06565b93506174b7818560208601615853565b6174c08161524e565b840191505092915050565b600060208201905081810360008301526174e58184617492565b905092915050565b7f5061757361626c653a206e6f7420706175736564000000000000000000000000600082015250565b6000617523601483615f06565b915061752e826174ed565b602082019050919050565b6000602082019050818103600083015261755281617516565b9050919050565b7f736c6963655f6f766572666c6f77000000000000000000000000000000000000600082015250565b600061758f600e83615f06565b915061759a82617559565b602082019050919050565b600060208201905081810360008301526175be81617582565b9050919050565b7f736c6963655f6f75744f66426f756e6473000000000000000000000000000000600082015250565b60006175fb601183615f06565b9150617606826175c5565b602082019050919050565b6000602082019050818103600083015261762a816175ee565b9050919050565b600061763c82614f43565b91506000820361764f5761764e6160d6565b5b600182039050919050565b7f537472696e67733a20686578206c656e67746820696e73756666696369656e74600082015250565b6000617690602083615f06565b915061769b8261765a565b602082019050919050565b600060208201905081810360008301526176bf81617683565b905091905056fea264697066735822122025ad88f71ae789ebbab3df04c91df7d5b9771a0c8a9362348248a8068e1e415e64736f6c63430008140033",
  "linkReferences": {},
  "deployedLinkReferences": {}
}